{
  "contractName": "Spacebear",
  "abi": [
    {
      "inputs": [
        {
          "internalType": "address",
          "name": "initialOwner",
          "type": "address"
        }
      ],
      "stateMutability": "nonpayable",
      "type": "constructor"
    },
    {
      "inputs": [
        {
          "internalType": "address",
          "name": "sender",
          "type": "address"
        },
        {
          "internalType": "uint256",
          "name": "tokenId",
          "type": "uint256"
        },
        {
          "internalType": "address",
          "name": "owner",
          "type": "address"
        }
      ],
      "name": "ERC721IncorrectOwner",
      "type": "error"
    },
    {
      "inputs": [
        {
          "internalType": "address",
          "name": "operator",
          "type": "address"
        },
        {
          "internalType": "uint256",
          "name": "tokenId",
          "type": "uint256"
        }
      ],
      "name": "ERC721InsufficientApproval",
      "type": "error"
    },
    {
      "inputs": [
        {
          "internalType": "address",
          "name": "approver",
          "type": "address"
        }
      ],
      "name": "ERC721InvalidApprover",
      "type": "error"
    },
    {
      "inputs": [
        {
          "internalType": "address",
          "name": "operator",
          "type": "address"
        }
      ],
      "name": "ERC721InvalidOperator",
      "type": "error"
    },
    {
      "inputs": [
        {
          "internalType": "address",
          "name": "owner",
          "type": "address"
        }
      ],
      "name": "ERC721InvalidOwner",
      "type": "error"
    },
    {
      "inputs": [
        {
          "internalType": "address",
          "name": "receiver",
          "type": "address"
        }
      ],
      "name": "ERC721InvalidReceiver",
      "type": "error"
    },
    {
      "inputs": [
        {
          "internalType": "address",
          "name": "sender",
          "type": "address"
        }
      ],
      "name": "ERC721InvalidSender",
      "type": "error"
    },
    {
      "inputs": [
        {
          "internalType": "uint256",
          "name": "tokenId",
          "type": "uint256"
        }
      ],
      "name": "ERC721NonexistentToken",
      "type": "error"
    },
    {
      "inputs": [
        {
          "internalType": "address",
          "name": "owner",
          "type": "address"
        }
      ],
      "name": "OwnableInvalidOwner",
      "type": "error"
    },
    {
      "inputs": [
        {
          "internalType": "address",
          "name": "account",
          "type": "address"
        }
      ],
      "name": "OwnableUnauthorizedAccount",
      "type": "error"
    },
    {
      "anonymous": false,
      "inputs": [
        {
          "indexed": true,
          "internalType": "address",
          "name": "owner",
          "type": "address"
        },
        {
          "indexed": true,
          "internalType": "address",
          "name": "approved",
          "type": "address"
        },
        {
          "indexed": true,
          "internalType": "uint256",
          "name": "tokenId",
          "type": "uint256"
        }
      ],
      "name": "Approval",
      "type": "event"
    },
    {
      "anonymous": false,
      "inputs": [
        {
          "indexed": true,
          "internalType": "address",
          "name": "owner",
          "type": "address"
        },
        {
          "indexed": true,
          "internalType": "address",
          "name": "operator",
          "type": "address"
        },
        {
          "indexed": false,
          "internalType": "bool",
          "name": "approved",
          "type": "bool"
        }
      ],
      "name": "ApprovalForAll",
      "type": "event"
    },
    {
      "anonymous": false,
      "inputs": [
        {
          "indexed": false,
          "internalType": "uint256",
          "name": "_fromTokenId",
          "type": "uint256"
        },
        {
          "indexed": false,
          "internalType": "uint256",
          "name": "_toTokenId",
          "type": "uint256"
        }
      ],
      "name": "BatchMetadataUpdate",
      "type": "event"
    },
    {
      "anonymous": false,
      "inputs": [
        {
          "indexed": false,
          "internalType": "uint256",
          "name": "_tokenId",
          "type": "uint256"
        }
      ],
      "name": "MetadataUpdate",
      "type": "event"
    },
    {
      "anonymous": false,
      "inputs": [
        {
          "indexed": true,
          "internalType": "address",
          "name": "previousOwner",
          "type": "address"
        },
        {
          "indexed": true,
          "internalType": "address",
          "name": "newOwner",
          "type": "address"
        }
      ],
      "name": "OwnershipTransferred",
      "type": "event"
    },
    {
      "anonymous": false,
      "inputs": [
        {
          "indexed": true,
          "internalType": "address",
          "name": "from",
          "type": "address"
        },
        {
          "indexed": true,
          "internalType": "address",
          "name": "to",
          "type": "address"
        },
        {
          "indexed": true,
          "internalType": "uint256",
          "name": "tokenId",
          "type": "uint256"
        }
      ],
      "name": "Transfer",
      "type": "event"
    },
    {
      "inputs": [
        {
          "internalType": "address",
          "name": "to",
          "type": "address"
        },
        {
          "internalType": "uint256",
          "name": "tokenId",
          "type": "uint256"
        }
      ],
      "name": "approve",
      "outputs": [],
      "stateMutability": "nonpayable",
      "type": "function"
    },
    {
      "inputs": [
        {
          "internalType": "address",
          "name": "owner",
          "type": "address"
        }
      ],
      "name": "balanceOf",
      "outputs": [
        {
          "internalType": "uint256",
          "name": "",
          "type": "uint256"
        }
      ],
      "stateMutability": "view",
      "type": "function",
      "constant": true
    },
    {
      "inputs": [
        {
          "internalType": "uint256",
          "name": "tokenId",
          "type": "uint256"
        }
      ],
      "name": "getApproved",
      "outputs": [
        {
          "internalType": "address",
          "name": "",
          "type": "address"
        }
      ],
      "stateMutability": "view",
      "type": "function",
      "constant": true
    },
    {
      "inputs": [
        {
          "internalType": "address",
          "name": "owner",
          "type": "address"
        },
        {
          "internalType": "address",
          "name": "operator",
          "type": "address"
        }
      ],
      "name": "isApprovedForAll",
      "outputs": [
        {
          "internalType": "bool",
          "name": "",
          "type": "bool"
        }
      ],
      "stateMutability": "view",
      "type": "function",
      "constant": true
    },
    {
      "inputs": [],
      "name": "name",
      "outputs": [
        {
          "internalType": "string",
          "name": "",
          "type": "string"
        }
      ],
      "stateMutability": "view",
      "type": "function",
      "constant": true
    },
    {
      "inputs": [],
      "name": "owner",
      "outputs": [
        {
          "internalType": "address",
          "name": "",
          "type": "address"
        }
      ],
      "stateMutability": "view",
      "type": "function",
      "constant": true
    },
    {
      "inputs": [
        {
          "internalType": "uint256",
          "name": "tokenId",
          "type": "uint256"
        }
      ],
      "name": "ownerOf",
      "outputs": [
        {
          "internalType": "address",
          "name": "",
          "type": "address"
        }
      ],
      "stateMutability": "view",
      "type": "function",
      "constant": true
    },
    {
      "inputs": [],
      "name": "renounceOwnership",
      "outputs": [],
      "stateMutability": "nonpayable",
      "type": "function"
    },
    {
      "inputs": [
        {
          "internalType": "address",
          "name": "from",
          "type": "address"
        },
        {
          "internalType": "address",
          "name": "to",
          "type": "address"
        },
        {
          "internalType": "uint256",
          "name": "tokenId",
          "type": "uint256"
        }
      ],
      "name": "safeTransferFrom",
      "outputs": [],
      "stateMutability": "nonpayable",
      "type": "function"
    },
    {
      "inputs": [
        {
          "internalType": "address",
          "name": "from",
          "type": "address"
        },
        {
          "internalType": "address",
          "name": "to",
          "type": "address"
        },
        {
          "internalType": "uint256",
          "name": "tokenId",
          "type": "uint256"
        },
        {
          "internalType": "bytes",
          "name": "data",
          "type": "bytes"
        }
      ],
      "name": "safeTransferFrom",
      "outputs": [],
      "stateMutability": "nonpayable",
      "type": "function"
    },
    {
      "inputs": [
        {
          "internalType": "address",
          "name": "operator",
          "type": "address"
        },
        {
          "internalType": "bool",
          "name": "approved",
          "type": "bool"
        }
      ],
      "name": "setApprovalForAll",
      "outputs": [],
      "stateMutability": "nonpayable",
      "type": "function"
    },
    {
      "inputs": [],
      "name": "symbol",
      "outputs": [
        {
          "internalType": "string",
          "name": "",
          "type": "string"
        }
      ],
      "stateMutability": "view",
      "type": "function",
      "constant": true
    },
    {
      "inputs": [
        {
          "internalType": "address",
          "name": "from",
          "type": "address"
        },
        {
          "internalType": "address",
          "name": "to",
          "type": "address"
        },
        {
          "internalType": "uint256",
          "name": "tokenId",
          "type": "uint256"
        }
      ],
      "name": "transferFrom",
      "outputs": [],
      "stateMutability": "nonpayable",
      "type": "function"
    },
    {
      "inputs": [
        {
          "internalType": "address",
          "name": "newOwner",
          "type": "address"
        }
      ],
      "name": "transferOwnership",
      "outputs": [],
      "stateMutability": "nonpayable",
      "type": "function"
    },
    {
      "inputs": [
        {
          "internalType": "address",
          "name": "to",
          "type": "address"
        },
        {
          "internalType": "string",
          "name": "uri",
          "type": "string"
        }
      ],
      "name": "safeMint",
      "outputs": [],
      "stateMutability": "nonpayable",
      "type": "function"
    },
    {
      "inputs": [],
      "name": "buyToken",
      "outputs": [],
      "stateMutability": "payable",
      "type": "function",
      "payable": true
    },
    {
      "inputs": [
        {
          "internalType": "uint256",
          "name": "tokenId",
          "type": "uint256"
        }
      ],
      "name": "tokenURI",
      "outputs": [
        {
          "internalType": "string",
          "name": "",
          "type": "string"
        }
      ],
      "stateMutability": "view",
      "type": "function",
      "constant": true
    },
    {
      "inputs": [
        {
          "internalType": "bytes4",
          "name": "interfaceId",
          "type": "bytes4"
        }
      ],
      "name": "supportsInterface",
      "outputs": [
        {
          "internalType": "bool",
          "name": "",
          "type": "bool"
        }
      ],
      "stateMutability": "view",
      "type": "function",
      "constant": true
    }
  ],
  "bytecode": "0x608060405234801562000010575f80fd5b5060405162002f6d38038062002f6d83398181016040528101906200003691906200027c565b806040518060400160405280600981526020017f53706163656265617200000000000000000000000000000000000000000000008152506040518060400160405280600381526020017f5350420000000000000000000000000000000000000000000000000000000000815250815f9081620000b3919062000510565b508060019081620000c5919062000510565b5050505f73ffffffffffffffffffffffffffffffffffffffff168173ffffffffffffffffffffffffffffffffffffffff16036200013b575f6040517f1e4fbdf700000000000000000000000000000000000000000000000000000000815260040162000132919062000605565b60405180910390fd5b6200014c816200015460201b60201c565b505062000620565b5f60075f9054906101000a900473ffffffffffffffffffffffffffffffffffffffff1690508160075f6101000a81548173ffffffffffffffffffffffffffffffffffffffff021916908373ffffffffffffffffffffffffffffffffffffffff1602179055508173ffffffffffffffffffffffffffffffffffffffff168173ffffffffffffffffffffffffffffffffffffffff167f8be0079c531659141344cd1fd0a4f28419497f9722a3daafe3b4186f6b6457e060405160405180910390a35050565b5f80fd5b5f73ffffffffffffffffffffffffffffffffffffffff82169050919050565b5f62000246826200021b565b9050919050565b62000258816200023a565b811462000263575f80fd5b50565b5f8151905062000276816200024d565b92915050565b5f6020828403121562000294576200029362000217565b5b5f620002a38482850162000266565b91505092915050565b5f81519050919050565b7f4e487b71000000000000000000000000000000000000000000000000000000005f52604160045260245ffd5b7f4e487b71000000000000000000000000000000000000000000000000000000005f52602260045260245ffd5b5f60028204905060018216806200032857607f821691505b6020821081036200033e576200033d620002e3565b5b50919050565b5f819050815f5260205f209050919050565b5f6020601f8301049050919050565b5f82821b905092915050565b5f60088302620003a27fffffffffffffffffffffffffffffffffffffffffffffffffffffffffffffffff8262000365565b620003ae868362000365565b95508019841693508086168417925050509392505050565b5f819050919050565b5f819050919050565b5f620003f8620003f2620003ec84620003c6565b620003cf565b620003c6565b9050919050565b5f819050919050565b6200041383620003d8565b6200042b6200042282620003ff565b84845462000371565b825550505050565b5f90565b6200044162000433565b6200044e81848462000408565b505050565b5b818110156200047557620004695f8262000437565b60018101905062000454565b5050565b601f821115620004c4576200048e8162000344565b620004998462000356565b81016020851015620004a9578190505b620004c1620004b88562000356565b83018262000453565b50505b505050565b5f82821c905092915050565b5f620004e65f1984600802620004c9565b1980831691505092915050565b5f620005008383620004d5565b9150826002028217905092915050565b6200051b82620002ac565b67ffffffffffffffff811115620005375762000536620002b6565b5b62000543825462000310565b6200055082828562000479565b5f60209050601f83116001811462000586575f841562000571578287015190505b6200057d8582620004f3565b865550620005ec565b601f198416620005968662000344565b5f5b82811015620005bf5784890151825560018201915060208501945060208101905062000598565b86831015620005df5784890151620005db601f891682620004d5565b8355505b6001600288020188555050505b505050505050565b620005ff816200023a565b82525050565b5f6020820190506200061a5f830184620005f4565b92915050565b61293f806200062e5f395ff3fe608060405260043610610108575f3560e01c80638da5cb5b11610094578063b88d4fde11610063578063b88d4fde1461033a578063c87b56dd14610362578063d204c45e1461039e578063e985e9c5146103c6578063f2fde38b1461040257610108565b80638da5cb5b146102b457806395d89b41146102de578063a22cb46514610308578063a48217191461033057610108565b806323b872dd116100db57806323b872dd146101d657806342842e0e146101fe5780636352211e1461022657806370a0823114610262578063715018a61461029e57610108565b806301ffc9a71461010c57806306fdde0314610148578063081812fc14610172578063095ea7b3146101ae575b5f80fd5b348015610117575f80fd5b50610132600480360381019061012d9190611cbd565b61042a565b60405161013f9190611d02565b60405180910390f35b348015610153575f80fd5b5061015c61043b565b6040516101699190611da5565b60405180910390f35b34801561017d575f80fd5b5061019860048036038101906101939190611df8565b6104ca565b6040516101a59190611e62565b60405180910390f35b3480156101b9575f80fd5b506101d460048036038101906101cf9190611ea5565b6104e5565b005b3480156101e1575f80fd5b506101fc60048036038101906101f79190611ee3565b6104fb565b005b348015610209575f80fd5b50610224600480360381019061021f9190611ee3565b6105fa565b005b348015610231575f80fd5b5061024c60048036038101906102479190611df8565b610619565b6040516102599190611e62565b60405180910390f35b34801561026d575f80fd5b5061028860048036038101906102839190611f33565b61062a565b6040516102959190611f6d565b60405180910390f35b3480156102a9575f80fd5b506102b26106e0565b005b3480156102bf575f80fd5b506102c86106f3565b6040516102d59190611e62565b60405180910390f35b3480156102e9575f80fd5b506102f261071b565b6040516102ff9190611da5565b60405180910390f35b348015610313575f80fd5b5061032e60048036038101906103299190611fb0565b6107ab565b005b6103386107c1565b005b348015610345575f80fd5b50610360600480360381019061035b919061211a565b61087e565b005b34801561036d575f80fd5b5061038860048036038101906103839190611df8565b61089b565b6040516103959190611da5565b60405180910390f35b3480156103a9575f80fd5b506103c460048036038101906103bf9190612238565b6108ad565b005b3480156103d1575f80fd5b506103ec60048036038101906103e79190612292565b6108e5565b6040516103f99190611d02565b60405180910390f35b34801561040d575f80fd5b5061042860048036038101906104239190611f33565b610973565b005b5f610434826109f7565b9050919050565b60605f8054610449906122fd565b80601f0160208091040260200160405190810160405280929190818152602001828054610475906122fd565b80156104c05780601f10610497576101008083540402835291602001916104c0565b820191905f5260205f20905b8154815290600101906020018083116104a357829003601f168201915b5050505050905090565b5f6104d482610a57565b506104de82610add565b9050919050565b6104f782826104f2610b16565b610b1d565b5050565b5f73ffffffffffffffffffffffffffffffffffffffff168273ffffffffffffffffffffffffffffffffffffffff160361056b575f6040517f64a0ae920000000000000000000000000000000000000000000000000000000081526004016105629190611e62565b60405180910390fd5b5f61057e8383610579610b16565b610b2f565b90508373ffffffffffffffffffffffffffffffffffffffff168173ffffffffffffffffffffffffffffffffffffffff16146105f4578382826040517f64283d7b0000000000000000000000000000000000000000000000000000000081526004016105eb9392919061232d565b60405180910390fd5b50505050565b61061483838360405180602001604052805f81525061087e565b505050565b5f61062382610a57565b9050919050565b5f8073ffffffffffffffffffffffffffffffffffffffff168273ffffffffffffffffffffffffffffffffffffffff160361069b575f6040517f89c62b640000000000000000000000000000000000000000000000000000000081526004016106929190611e62565b60405180910390fd5b60035f8373ffffffffffffffffffffffffffffffffffffffff1673ffffffffffffffffffffffffffffffffffffffff1681526020019081526020015f20549050919050565b6106e8610d3a565b6106f15f610dc1565b565b5f60075f9054906101000a900473ffffffffffffffffffffffffffffffffffffffff16905090565b60606001805461072a906122fd565b80601f0160208091040260200160405190810160405280929190818152602001828054610756906122fd565b80156107a15780601f10610778576101008083540402835291602001916107a1565b820191905f5260205f20905b81548152906001019060200180831161078457829003601f168201915b5050505050905090565b6107bd6107b6610b16565b8383610e84565b5050565b5f60085490506108076040518060400160405280600881526020017f676f7420686572650000000000000000000000000000000000000000000000008152508234610fed565b67016345785d8a00008161081b919061238f565b341461085c576040517f08c379a00000000000000000000000000000000000000000000000000000000081526004016108539061241a565b60405180910390fd5b60085f815461086a90612438565b9190508190555061087b338261108c565b50565b6108898484846104fb565b610895848484846110a9565b50505050565b60606108a68261125b565b9050919050565b6108b5610d3a565b5f60085f81546108c490612438565b91905081905590506108d6838261108c565b6108e08183611366565b505050565b5f60055f8473ffffffffffffffffffffffffffffffffffffffff1673ffffffffffffffffffffffffffffffffffffffff1681526020019081526020015f205f8373ffffffffffffffffffffffffffffffffffffffff1673ffffffffffffffffffffffffffffffffffffffff1681526020019081526020015f205f9054906101000a900460ff16905092915050565b61097b610d3a565b5f73ffffffffffffffffffffffffffffffffffffffff168173ffffffffffffffffffffffffffffffffffffffff16036109eb575f6040517f1e4fbdf70000000000000000000000000000000000000000000000000000000081526004016109e29190611e62565b60405180910390fd5b6109f481610dc1565b50565b5f634906490660e01b7bffffffffffffffffffffffffffffffffffffffffffffffffffffffff1916827bffffffffffffffffffffffffffffffffffffffffffffffffffffffff19161480610a505750610a4f826113c0565b5b9050919050565b5f80610a62836114a1565b90505f73ffffffffffffffffffffffffffffffffffffffff168173ffffffffffffffffffffffffffffffffffffffff1603610ad457826040517f7e273289000000000000000000000000000000000000000000000000000000008152600401610acb9190611f6d565b60405180910390fd5b80915050919050565b5f60045f8381526020019081526020015f205f9054906101000a900473ffffffffffffffffffffffffffffffffffffffff169050919050565b5f33905090565b610b2a83838360016114da565b505050565b5f80610b3a846114a1565b90505f73ffffffffffffffffffffffffffffffffffffffff168373ffffffffffffffffffffffffffffffffffffffff1614610b7b57610b7a818486611699565b5b5f73ffffffffffffffffffffffffffffffffffffffff168173ffffffffffffffffffffffffffffffffffffffff1614610c0657610bba5f855f806114da565b600160035f8373ffffffffffffffffffffffffffffffffffffffff1673ffffffffffffffffffffffffffffffffffffffff1681526020019081526020015f205f82825403925050819055505b5f73ffffffffffffffffffffffffffffffffffffffff168573ffffffffffffffffffffffffffffffffffffffff1614610c8557600160035f8773ffffffffffffffffffffffffffffffffffffffff1673ffffffffffffffffffffffffffffffffffffffff1681526020019081526020015f205f82825401925050819055505b8460025f8681526020019081526020015f205f6101000a81548173ffffffffffffffffffffffffffffffffffffffff021916908373ffffffffffffffffffffffffffffffffffffffff160217905550838573ffffffffffffffffffffffffffffffffffffffff168273ffffffffffffffffffffffffffffffffffffffff167fddf252ad1be2c89b69c2b068fc378daa952ba7f163c4a11628f55a4df523b3ef60405160405180910390a4809150509392505050565b610d42610b16565b73ffffffffffffffffffffffffffffffffffffffff16610d606106f3565b73ffffffffffffffffffffffffffffffffffffffff1614610dbf57610d83610b16565b6040517f118cdaa7000000000000000000000000000000000000000000000000000000008152600401610db69190611e62565b60405180910390fd5b565b5f60075f9054906101000a900473ffffffffffffffffffffffffffffffffffffffff1690508160075f6101000a81548173ffffffffffffffffffffffffffffffffffffffff021916908373ffffffffffffffffffffffffffffffffffffffff1602179055508173ffffffffffffffffffffffffffffffffffffffff168173ffffffffffffffffffffffffffffffffffffffff167f8be0079c531659141344cd1fd0a4f28419497f9722a3daafe3b4186f6b6457e060405160405180910390a35050565b5f73ffffffffffffffffffffffffffffffffffffffff168273ffffffffffffffffffffffffffffffffffffffff1603610ef457816040517f5b08ba18000000000000000000000000000000000000000000000000000000008152600401610eeb9190611e62565b60405180910390fd5b8060055f8573ffffffffffffffffffffffffffffffffffffffff1673ffffffffffffffffffffffffffffffffffffffff1681526020019081526020015f205f8473ffffffffffffffffffffffffffffffffffffffff1673ffffffffffffffffffffffffffffffffffffffff1681526020019081526020015f205f6101000a81548160ff0219169083151502179055508173ffffffffffffffffffffffffffffffffffffffff168373ffffffffffffffffffffffffffffffffffffffff167f17307eab39ab6107e8899845ad3d59bd9653f200f220920489ca2b5937696c3183604051610fe09190611d02565b60405180910390a3505050565b6110878383836040516024016110059392919061247f565b6040516020818303038152906040527fca47c4eb000000000000000000000000000000000000000000000000000000007bffffffffffffffffffffffffffffffffffffffffffffffffffffffff19166020820180517bffffffffffffffffffffffffffffffffffffffffffffffffffffffff838183161783525050505061175c565b505050565b6110a5828260405180602001604052805f81525061177f565b5050565b5f8373ffffffffffffffffffffffffffffffffffffffff163b1115611255578273ffffffffffffffffffffffffffffffffffffffff1663150b7a026110ec610b16565b8685856040518563ffffffff1660e01b815260040161110e949392919061250d565b6020604051808303815f875af192505050801561114957506040513d601f19601f82011682018060405250810190611146919061256b565b60015b6111ca573d805f8114611177576040519150601f19603f3d011682016040523d82523d5f602084013e61117c565b606091505b505f8151036111c257836040517f64a0ae920000000000000000000000000000000000000000000000000000000081526004016111b99190611e62565b60405180910390fd5b805181602001fd5b63150b7a0260e01b7bffffffffffffffffffffffffffffffffffffffffffffffffffffffff1916817bffffffffffffffffffffffffffffffffffffffffffffffffffffffff19161461125357836040517f64a0ae9200000000000000000000000000000000000000000000000000000000815260040161124a9190611e62565b60405180910390fd5b505b50505050565b606061126682610a57565b505f60065f8481526020019081526020015f208054611284906122fd565b80601f01602080910402602001604051908101604052809291908181526020018280546112b0906122fd565b80156112fb5780601f106112d2576101008083540402835291602001916112fb565b820191905f5260205f20905b8154815290600101906020018083116112de57829003601f168201915b505050505090505f61130b61179a565b90505f81510361131f578192505050611361565b5f8251111561135357808260405160200161133b9291906125d0565b60405160208183030381529060405292505050611361565b61135c846117ba565b925050505b919050565b8060065f8481526020019081526020015f2090816113849190612790565b507ff8e1a15aba9398e019f0b49df1a4fde98ee17ae345cb5f6b5e2c27f5033e8ce7826040516113b49190611f6d565b60405180910390a15050565b5f7f80ac58cd000000000000000000000000000000000000000000000000000000007bffffffffffffffffffffffffffffffffffffffffffffffffffffffff1916827bffffffffffffffffffffffffffffffffffffffffffffffffffffffff1916148061148a57507f5b5e139f000000000000000000000000000000000000000000000000000000007bffffffffffffffffffffffffffffffffffffffffffffffffffffffff1916827bffffffffffffffffffffffffffffffffffffffffffffffffffffffff1916145b8061149a575061149982611820565b5b9050919050565b5f60025f8381526020019081526020015f205f9054906101000a900473ffffffffffffffffffffffffffffffffffffffff169050919050565b808061151257505f73ffffffffffffffffffffffffffffffffffffffff168273ffffffffffffffffffffffffffffffffffffffff1614155b15611644575f61152184610a57565b90505f73ffffffffffffffffffffffffffffffffffffffff168373ffffffffffffffffffffffffffffffffffffffff161415801561158b57508273ffffffffffffffffffffffffffffffffffffffff168173ffffffffffffffffffffffffffffffffffffffff1614155b801561159e575061159c81846108e5565b155b156115e057826040517fa9fbf51f0000000000000000000000000000000000000000000000000000000081526004016115d79190611e62565b60405180910390fd5b811561164257838573ffffffffffffffffffffffffffffffffffffffff168273ffffffffffffffffffffffffffffffffffffffff167f8c5be1e5ebec7d5bd14f71427d1e84f3dd0314c0f7b2291e5b200ac8c7c3b92560405160405180910390a45b505b8360045f8581526020019081526020015f205f6101000a81548173ffffffffffffffffffffffffffffffffffffffff021916908373ffffffffffffffffffffffffffffffffffffffff16021790555050505050565b6116a4838383611889565b611757575f73ffffffffffffffffffffffffffffffffffffffff168373ffffffffffffffffffffffffffffffffffffffff160361171857806040517f7e27328900000000000000000000000000000000000000000000000000000000815260040161170f9190611f6d565b60405180910390fd5b81816040517f177e802f00000000000000000000000000000000000000000000000000000000815260040161174e92919061285f565b60405180910390fd5b505050565b5f6a636f6e736f6c652e6c6f6790508151602083015f808383865afa5050505050565b6117898383611949565b6117955f8484846110a9565b505050565b60606040518060800160405280605681526020016128b460569139905090565b60606117c582610a57565b505f6117cf61179a565b90505f8151116117ed5760405180602001604052805f815250611818565b806117f784611a3c565b6040516020016118089291906125d0565b6040516020818303038152906040525b915050919050565b5f7f01ffc9a7000000000000000000000000000000000000000000000000000000007bffffffffffffffffffffffffffffffffffffffffffffffffffffffff1916827bffffffffffffffffffffffffffffffffffffffffffffffffffffffff1916149050919050565b5f8073ffffffffffffffffffffffffffffffffffffffff168373ffffffffffffffffffffffffffffffffffffffff161415801561194057508273ffffffffffffffffffffffffffffffffffffffff168473ffffffffffffffffffffffffffffffffffffffff161480611901575061190084846108e5565b5b8061193f57508273ffffffffffffffffffffffffffffffffffffffff1661192783610add565b73ffffffffffffffffffffffffffffffffffffffff16145b5b90509392505050565b5f73ffffffffffffffffffffffffffffffffffffffff168273ffffffffffffffffffffffffffffffffffffffff16036119b9575f6040517f64a0ae920000000000000000000000000000000000000000000000000000000081526004016119b09190611e62565b60405180910390fd5b5f6119c583835f610b2f565b90505f73ffffffffffffffffffffffffffffffffffffffff168173ffffffffffffffffffffffffffffffffffffffff1614611a37575f6040517f73c6ac6e000000000000000000000000000000000000000000000000000000008152600401611a2e9190611e62565b60405180910390fd5b505050565b60605f6001611a4a84611b06565b0190505f8167ffffffffffffffff811115611a6857611a67611ff6565b5b6040519080825280601f01601f191660200182016040528015611a9a5781602001600182028036833780820191505090505b5090505f82602001820190505b600115611afb578080600190039150507f3031323334353637383961626364656600000000000000000000000000000000600a86061a8153600a8581611af057611aef612886565b5b0494505f8503611aa7575b819350505050919050565b5f805f90507a184f03e93ff9f4daa797ed6e38ed64bf6a1f0100000000000000008310611b62577a184f03e93ff9f4daa797ed6e38ed64bf6a1f0100000000000000008381611b5857611b57612886565b5b0492506040810190505b6d04ee2d6d415b85acef81000000008310611b9f576d04ee2d6d415b85acef81000000008381611b9557611b94612886565b5b0492506020810190505b662386f26fc100008310611bce57662386f26fc100008381611bc457611bc3612886565b5b0492506010810190505b6305f5e1008310611bf7576305f5e1008381611bed57611bec612886565b5b0492506008810190505b6127108310611c1c576127108381611c1257611c11612886565b5b0492506004810190505b60648310611c3f5760648381611c3557611c34612886565b5b0492506002810190505b600a8310611c4e576001810190505b80915050919050565b5f604051905090565b5f80fd5b5f80fd5b5f7fffffffff0000000000000000000000000000000000000000000000000000000082169050919050565b611c9c81611c68565b8114611ca6575f80fd5b50565b5f81359050611cb781611c93565b92915050565b5f60208284031215611cd257611cd1611c60565b5b5f611cdf84828501611ca9565b91505092915050565b5f8115159050919050565b611cfc81611ce8565b82525050565b5f602082019050611d155f830184611cf3565b92915050565b5f81519050919050565b5f82825260208201905092915050565b5f5b83811015611d52578082015181840152602081019050611d37565b5f8484015250505050565b5f601f19601f8301169050919050565b5f611d7782611d1b565b611d818185611d25565b9350611d91818560208601611d35565b611d9a81611d5d565b840191505092915050565b5f6020820190508181035f830152611dbd8184611d6d565b905092915050565b5f819050919050565b611dd781611dc5565b8114611de1575f80fd5b50565b5f81359050611df281611dce565b92915050565b5f60208284031215611e0d57611e0c611c60565b5b5f611e1a84828501611de4565b91505092915050565b5f73ffffffffffffffffffffffffffffffffffffffff82169050919050565b5f611e4c82611e23565b9050919050565b611e5c81611e42565b82525050565b5f602082019050611e755f830184611e53565b92915050565b611e8481611e42565b8114611e8e575f80fd5b50565b5f81359050611e9f81611e7b565b92915050565b5f8060408385031215611ebb57611eba611c60565b5b5f611ec885828601611e91565b9250506020611ed985828601611de4565b9150509250929050565b5f805f60608486031215611efa57611ef9611c60565b5b5f611f0786828701611e91565b9350506020611f1886828701611e91565b9250506040611f2986828701611de4565b9150509250925092565b5f60208284031215611f4857611f47611c60565b5b5f611f5584828501611e91565b91505092915050565b611f6781611dc5565b82525050565b5f602082019050611f805f830184611f5e565b92915050565b611f8f81611ce8565b8114611f99575f80fd5b50565b5f81359050611faa81611f86565b92915050565b5f8060408385031215611fc657611fc5611c60565b5b5f611fd385828601611e91565b9250506020611fe485828601611f9c565b9150509250929050565b5f80fd5b5f80fd5b7f4e487b71000000000000000000000000000000000000000000000000000000005f52604160045260245ffd5b61202c82611d5d565b810181811067ffffffffffffffff8211171561204b5761204a611ff6565b5b80604052505050565b5f61205d611c57565b90506120698282612023565b919050565b5f67ffffffffffffffff82111561208857612087611ff6565b5b61209182611d5d565b9050602081019050919050565b828183375f83830152505050565b5f6120be6120b98461206e565b612054565b9050828152602081018484840111156120da576120d9611ff2565b5b6120e584828561209e565b509392505050565b5f82601f83011261210157612100611fee565b5b81356121118482602086016120ac565b91505092915050565b5f805f806080858703121561213257612131611c60565b5b5f61213f87828801611e91565b945050602061215087828801611e91565b935050604061216187828801611de4565b925050606085013567ffffffffffffffff81111561218257612181611c64565b5b61218e878288016120ed565b91505092959194509250565b5f67ffffffffffffffff8211156121b4576121b3611ff6565b5b6121bd82611d5d565b9050602081019050919050565b5f6121dc6121d78461219a565b612054565b9050828152602081018484840111156121f8576121f7611ff2565b5b61220384828561209e565b509392505050565b5f82601f83011261221f5761221e611fee565b5b813561222f8482602086016121ca565b91505092915050565b5f806040838503121561224e5761224d611c60565b5b5f61225b85828601611e91565b925050602083013567ffffffffffffffff81111561227c5761227b611c64565b5b6122888582860161220b565b9150509250929050565b5f80604083850312156122a8576122a7611c60565b5b5f6122b585828601611e91565b92505060206122c685828601611e91565b9150509250929050565b7f4e487b71000000000000000000000000000000000000000000000000000000005f52602260045260245ffd5b5f600282049050600182168061231457607f821691505b602082108103612327576123266122d0565b5b50919050565b5f6060820190506123405f830186611e53565b61234d6020830185611f5e565b61235a6040830184611e53565b949350505050565b7f4e487b71000000000000000000000000000000000000000000000000000000005f52601160045260245ffd5b5f61239982611dc5565b91506123a483611dc5565b92508282026123b281611dc5565b915082820484148315176123c9576123c8612362565b5b5092915050565b7f4e6f7420656e6f7567682066756e64732073656e7400000000000000000000005f82015250565b5f612404601583611d25565b915061240f826123d0565b602082019050919050565b5f6020820190508181035f830152612431816123f8565b9050919050565b5f61244282611dc5565b91507fffffffffffffffffffffffffffffffffffffffffffffffffffffffffffffffff820361247457612473612362565b5b600182019050919050565b5f6060820190508181035f8301526124978186611d6d565b90506124a66020830185611f5e565b6124b36040830184611f5e565b949350505050565b5f81519050919050565b5f82825260208201905092915050565b5f6124df826124bb565b6124e981856124c5565b93506124f9818560208601611d35565b61250281611d5d565b840191505092915050565b5f6080820190506125205f830187611e53565b61252d6020830186611e53565b61253a6040830185611f5e565b818103606083015261254c81846124d5565b905095945050505050565b5f8151905061256581611c93565b92915050565b5f602082840312156125805761257f611c60565b5b5f61258d84828501612557565b91505092915050565b5f81905092915050565b5f6125aa82611d1b565b6125b48185612596565b93506125c4818560208601611d35565b80840191505092915050565b5f6125db82856125a0565b91506125e782846125a0565b91508190509392505050565b5f819050815f5260205f209050919050565b5f6020601f8301049050919050565b5f82821b905092915050565b5f6008830261264f7fffffffffffffffffffffffffffffffffffffffffffffffffffffffffffffffff82612614565b6126598683612614565b95508019841693508086168417925050509392505050565b5f819050919050565b5f61269461268f61268a84611dc5565b612671565b611dc5565b9050919050565b5f819050919050565b6126ad8361267a565b6126c16126b98261269b565b848454612620565b825550505050565b5f90565b6126d56126c9565b6126e08184846126a4565b505050565b5b81811015612703576126f85f826126cd565b6001810190506126e6565b5050565b601f82111561274857612719816125f3565b61272284612605565b81016020851015612731578190505b61274561273d85612605565b8301826126e5565b50505b505050565b5f82821c905092915050565b5f6127685f198460080261274d565b1980831691505092915050565b5f6127808383612759565b9150826002028217905092915050565b61279982611d1b565b67ffffffffffffffff8111156127b2576127b1611ff6565b5b6127bc82546122fd565b6127c7828285612707565b5f60209050601f8311600181146127f8575f84156127e6578287015190505b6127f08582612775565b865550612857565b601f198416612806866125f3565b5f5b8281101561282d57848901518255600182019150602085019450602081019050612808565b8683101561284a5784890151612846601f891682612759565b8355505b6001600288020188555050505b505050505050565b5f6040820190506128725f830185611e53565b61287f6020830184611f5e565b9392505050565b7f4e487b71000000000000000000000000000000000000000000000000000000005f52601260045260245ffdfe68747470733a2f2f657468657265756d2d626c6f636b636861696e2d646576656c6f7065722e636f6d2f323032322d30362d6e66742d74727566666c652d686172646861742d666f756e6472792f6e6674646174612fa26469706673582212205802497e6303899f8fc2518e2947677b855362bc460c5d29bb7b8186b293aab264736f6c63430008150033",
  "immutableReferences": {},
  "source": "// SPDX-License-Identifier: MIT\npragma solidity ^0.8.20;\n\nimport \"@openzeppelin/contracts/token/ERC721/ERC721.sol\";\nimport \"@openzeppelin/contracts/token/ERC721/extensions/ERC721URIStorage.sol\";\nimport \"@openzeppelin/contracts/access/Ownable.sol\";\n\nimport \"@ganache/console.log/console.sol\";\n\ncontract Spacebear is ERC721, ERC721URIStorage, Ownable {\n    uint256 private _nextTokenId;\n\n    constructor(address initialOwner)\n        ERC721(\"Spacebear\", \"SPB\")\n        Ownable(initialOwner)\n    {}\n\n    function _baseURI() internal pure override returns (string memory) {\n        return \"https://ethereum-blockchain-developer.com/2022-06-nft-truffle-hardhat-foundry/nftdata/\";\n    }\n\n    function safeMint(address to, string memory uri) public onlyOwner {\n        uint256 tokenId = ++_nextTokenId;\n        _safeMint(to, tokenId);\n        _setTokenURI(tokenId, uri);\n    }\n\n    function buyToken() public payable {\n        uint256 tokenId = _nextTokenId;\n        console.log(\"got here\", tokenId, msg.value);\n        require(msg.value == tokenId * 0.1 ether, \"Not enough funds sent\");\n\n        ++_nextTokenId;\n        _safeMint(msg.sender, tokenId);\n    }\n\n    // The following functions are overrides required by Solidity.\n\n    function tokenURI(uint256 tokenId)\n        public\n        view\n        override(ERC721, ERC721URIStorage)\n        returns (string memory)\n    {\n        return super.tokenURI(tokenId);\n    }\n\n    function supportsInterface(bytes4 interfaceId)\n        public\n        view\n        override(ERC721, ERC721URIStorage)\n        returns (bool)\n    {\n        return super.supportsInterface(interfaceId);\n    }\n}\n",
  "sourcePath": "/home/inkz/practice/solidity/example/nft-project/contracts/Spacebears.sol",
  "compiler": {
    "name": "solc",
    "version": "0.8.21+commit.d9974bed.Emscripten.clang"
  },
  "schemaVersion": "3.4.16",
  "updatedAt": "2024-03-29T09:30:03.889Z",
  "networkType": "ethereum",
  "devdoc": {
    "errors": {
      "ERC721IncorrectOwner(address,uint256,address)": [
        {
          "details": "Indicates an error related to the ownership over a particular token. Used in transfers.",
          "params": {
            "owner": "Address of the current owner of a token.",
            "sender": "Address whose tokens are being transferred.",
            "tokenId": "Identifier number of a token."
          }
        }
      ],
      "ERC721InsufficientApproval(address,uint256)": [
        {
          "details": "Indicates a failure with the `operator`s approval. Used in transfers.",
          "params": {
            "operator": "Address that may be allowed to operate on tokens without being their owner.",
            "tokenId": "Identifier number of a token."
          }
        }
      ],
      "ERC721InvalidApprover(address)": [
        {
          "details": "Indicates a failure with the `approver` of a token to be approved. Used in approvals.",
          "params": {
            "approver": "Address initiating an approval operation."
          }
        }
      ],
      "ERC721InvalidOperator(address)": [
        {
          "details": "Indicates a failure with the `operator` to be approved. Used in approvals.",
          "params": {
            "operator": "Address that may be allowed to operate on tokens without being their owner."
          }
        }
      ],
      "ERC721InvalidOwner(address)": [
        {
          "details": "Indicates that an address can't be an owner. For example, `address(0)` is a forbidden owner in EIP-20. Used in balance queries.",
          "params": {
            "owner": "Address of the current owner of a token."
          }
        }
      ],
      "ERC721InvalidReceiver(address)": [
        {
          "details": "Indicates a failure with the token `receiver`. Used in transfers.",
          "params": {
            "receiver": "Address to which tokens are being transferred."
          }
        }
      ],
      "ERC721InvalidSender(address)": [
        {
          "details": "Indicates a failure with the token `sender`. Used in transfers.",
          "params": {
            "sender": "Address whose tokens are being transferred."
          }
        }
      ],
      "ERC721NonexistentToken(uint256)": [
        {
          "details": "Indicates a `tokenId` whose `owner` is the zero address.",
          "params": {
            "tokenId": "Identifier number of a token."
          }
        }
      ],
      "OwnableInvalidOwner(address)": [
        {
          "details": "The owner is not a valid owner account. (eg. `address(0)`)"
        }
      ],
      "OwnableUnauthorizedAccount(address)": [
        {
          "details": "The caller account is not authorized to perform an operation."
        }
      ]
    },
    "events": {
      "Approval(address,address,uint256)": {
        "details": "Emitted when `owner` enables `approved` to manage the `tokenId` token."
      },
      "ApprovalForAll(address,address,bool)": {
        "details": "Emitted when `owner` enables or disables (`approved`) `operator` to manage all of its assets."
      },
      "BatchMetadataUpdate(uint256,uint256)": {
        "details": "This event emits when the metadata of a range of tokens is changed. So that the third-party platforms such as NFT market could timely update the images and related attributes of the NFTs."
      },
      "MetadataUpdate(uint256)": {
        "details": "This event emits when the metadata of a token is changed. So that the third-party platforms such as NFT market could timely update the images and related attributes of the NFT."
      },
      "Transfer(address,address,uint256)": {
        "details": "Emitted when `tokenId` token is transferred from `from` to `to`."
      }
    },
    "kind": "dev",
    "methods": {
      "approve(address,uint256)": {
        "details": "See {IERC721-approve}."
      },
      "balanceOf(address)": {
        "details": "See {IERC721-balanceOf}."
      },
      "getApproved(uint256)": {
        "details": "See {IERC721-getApproved}."
      },
      "isApprovedForAll(address,address)": {
        "details": "See {IERC721-isApprovedForAll}."
      },
      "name()": {
        "details": "See {IERC721Metadata-name}."
      },
      "owner()": {
        "details": "Returns the address of the current owner."
      },
      "ownerOf(uint256)": {
        "details": "See {IERC721-ownerOf}."
      },
      "renounceOwnership()": {
        "details": "Leaves the contract without owner. It will not be possible to call `onlyOwner` functions. Can only be called by the current owner. NOTE: Renouncing ownership will leave the contract without an owner, thereby disabling any functionality that is only available to the owner."
      },
      "safeTransferFrom(address,address,uint256)": {
        "details": "See {IERC721-safeTransferFrom}."
      },
      "safeTransferFrom(address,address,uint256,bytes)": {
        "details": "See {IERC721-safeTransferFrom}."
      },
      "setApprovalForAll(address,bool)": {
        "details": "See {IERC721-setApprovalForAll}."
      },
      "symbol()": {
        "details": "See {IERC721Metadata-symbol}."
      },
      "transferFrom(address,address,uint256)": {
        "details": "See {IERC721-transferFrom}."
      },
      "transferOwnership(address)": {
        "details": "Transfers ownership of the contract to a new account (`newOwner`). Can only be called by the current owner."
      }
    },
    "version": 1
  },
  "userdoc": {
    "kind": "user",
    "methods": {},
    "version": 1
  }
}